S01700004550442D5850726F5F53414D4432312E7372656397
S113000050210020F1560000E1570000E1570000A4
S113001000000000000000000000000000000000DC
S1130020000000000000000000000000E157000094
S11300300000000000000000E1570000E15700004C
S1130040E1570000E1570000E1570000E1570000CC
S1130050E1570000E1570000E1570000E1570000BC
S1130060E1570000E1570000E1570000E1570000AC
S1130070E1570000E1570000E1570000E15700009C
S1130080E1570000E1570000993D0000AD3D00003C
S1130090C13D0000D53D0000E93D000001330000F2
S11300A0E1570000E1570000E1570000E15700006C
S11300B010B5064C2378002B07D1054B002B02D03A
S11300C0044800E000BF0123237010BD1400002089
S11300D0000000002893000008B5084B002B03D053
S11300E00748084900E000BF07480368002B03D015
S11300F0064B002B00D0984708BDC0460000000006
S1130100289300001800002028930000000000003D
S113011080B582B000AF78607B685B09181CBD466F
S113012002B080BD80B582B000AF78607B68DB012F
S1130130024A9B18181CBD4602B080BD0044004111
S113014080B582B000AF78607B68181C054B984777
S1130150031C181C044B9847031C181CBD4602B012
S113016080BDC046110100002501000080B582B0A9
S113017000AF78607A681F2313400122111C994054
S11301800B1C181CBD4602B080BDC04690B583B0A0
S113019000AF78600A1CFB1C1A70FB1C1B78002B38
S11301A00BD07B68181C0C4B9847041C7B68181CEC
S11301B00A4B9847031CA3610AE07B68181C064B92
S11301C09847041C7B68181C044B9847031C636104
S11301D0BD4603B090BDC046410100006D01000062
S11301E090B583B000AF78607B68181C084B9847C3
S11301F0031C1C6A7B68181C064B9847031C23408D
S11302005A1E9341DBB2181CBD4603B090BDC046D4
S1130210410100006D01000080B582B000AF78603C
S11302200A1CFB1C1A707A68FB1C1B78101C191C16
S1130230024B9847BD4602B080BDC0468D01000008
S113024080B582B000AF78607B68181C034B984778
S1130250031C181CBD4602B080BDC046E10100006D
S113026080B582B000AF021CFB1D1A70FB1D1B7809
S11302705BB21A1C093208DA464B1B781A1C464B2F
S11302801201D25A454B1A8081E0FB1D1B785BB2E8
S113029004330FDAFB1D1B785BB21A1C093209DB2D
S11302A03C4B1B783C4A1B01D31802331A883B4B46
S11302B01A806CE0FB1D1B785BB2052B0EDCFB1D6A
S11302C01B785BB2043309DB324B1B78324A1B01C7
S11302D0D31804331A88314B1A8058E0FB1D1B785D
S11302E05BB20A2B0EDCFB1D1B785BB2052B09DD10
S11302F0284B1B78284A1B01D31806331A88274B2E
S11303001A8044E0FB1D1B785BB20F2B0EDCFB1D37
S11303101B785BB20A2B09DD1E4B1B781E4A1B019E
S1130320D31808331A881D4B1A8030E0FB1D1B7844
S11303305BB2142B0EDCFB1D1B785BB20F2B09DDAB
S1130340144B1B78144A1B01D3180A331A88134B15
S11303501A801CE0FB1D1B785BB2282B0EDCFB1DF6
S11303601B785BB2142B09DD0A4B1B780A4A1B016C
S1130370D3180C331A88094B1A8008E0054B1B78F4
S1130380054A1B01D3180E331A88044B1A80BD4644
S113039002B080BDBC000020A46200003000002038
S11303A080B500AF274B1B78042B45D89A00264B09
S11303B0D3181B689F46254B254A1A60254B264AAD
S11303C01A60264B264A1A60264B274A1A6033E0E5
S11303D01E4B264A1A601F4B254A1A601F4B254A9A
S11303E01A60204B1A4A1A6026E0184B1F4A1A60FA
S11303F0184B214A1A60194B204A1A60194B144AA7
S11304001A6019E0114B1E4A1A60124B104A1A6006
S1130410124B134A1A60134B1A4A1A600CE00B4B26
S1130420194A1A600B4B0A4A1A600C4B0C4A1A60A0
S11304300C4B164A1A60C0460A4B1B6800221A70FD
S1130440BD4680BDBC00002044630000AC00002019
S113045034000020B00000205C000020B400002024
S113046044000020B80000206C000020350000206B
S1130470660000204E00002082000020560000206C
S113048068000020780000207E0000208E000020FC
S113049080B582B000AF0A1CFB1D011C1970BB1D86
S11304A01A70184BFA1D12781A7023200121164B6A
S11304B09847164B984705200121134B9847212054
S11304C00121114B9847272001210F4B9847052004
S11304D00F4B9847272000210B4B984705200C4BC6
S11304E0984727200121084B98470520084B984737
S11304F0BB1D1B785BB2181C064B9847BD4602B067
S113050080BDC046BC000020190200006123000029
S1130510C54800006102000080B582B000AFBB1D79
S113052000221A8009E0BB1D1B88514A0021D154C6
S1130530BB1D1A88BB1D01321A80BB1D1B886F2B83
S1130540F1D94C4B9847BB1D00221A8009E0BB1D12
S11305501B88BA1D591C1180474A934201D9F023C4
S113056081E02420454B9847031C002BEFD17220D7
S11305700021434B9847031C1A1C0F231340022BE2
S113058001D0F1236FE0022040213E4B98470F2019
S113059000213B4B9847031CDBB25BB2002B01DB11
S11305A0F22360E00B200221364B9847364B1B7830
S11305B01A1C131C9B009B189B00344A9B18012097
S11305C0191C0822324B98470720D1212D4B9847FC
S11305D0082002212B4B98470920C221294B984718
S11305E004200321274B984703200121254B9847DA
S11305F003200021234B98470520264B9847BB1D19
S113060000221A80052001211E4B9847F020214B1F
S11306109847052003211B4B984728201D4B9847DA
S113062005200F21174B984728201A4B98470F2075
S11306300021134B9847031C1A1C4023134004D079
S1130640022004210F4B984706E0BB1D1B88BA1DEE
S1130650591C1180042BD5D1BB1D1B88032B01D938
S1130660F42300E00023181CBD4602B080BDC04640
S113067034000020A1030000FE0F0000410200002E
S11306805924000089250000BC00002040620000BD
S1130690F9240000C548000090B593B000AFF8609D
S11306A0B960FB1D1A703B1C403300221A80BB68E2
S11306B0FB63FB68BB63C54B00221A80C44B98479D
S11306C0BB6BFB60FB6BBB603B1C443300221A809A
S11306D000F0ECFBBF4B1B781A1CBF49131C9B009A
S11306E09B189B00CB1808335A883B1C4233013AB1
S11306F01A80BA4B1B68002B17D0B84B1C68B54B3B
S11307001B781A1CB449131C9B009B189B00CB1824
S113071008335B88DBB2B9683A1C1432081C111C1C
S11307201A1CA0473B1C1433FB603B1C46330022BD
S11307301A8000F044FBFB685A1CFA603A1C3732FA
S11307401B781370FB1D1B78012B00D1CFE002DC5A
S1130750002B07D02CE3022B00D19BE1032B00D10B
S11307605DE225E39E4B1A683B1C46331B88D21876
S11307703B1C3733197840230B4001D0C02300E0E1
S113078080231370964B1A683B1C46331B88D2187F
S1130790934B19683B1C46331B88CB181B78D9B282
S11307A03B1C373318781023034001D0302300E07A
S11307B020230B43DBB2DBB21370894B1A683B1C5A
S11307C046331B88D218864B19683B1C46331B885A
S11307D0CB181B78D9B23B1C373318780423034059
S11307E001D00C2300E008230B43DBB2DBB213700F
S11307F07B4B1A683B1C46331B88D218784B19680C
S11308003B1C46331B88CB181B78D9B23B1C3733AF
S113081018780123034001D0032300E002230B4393
S1130820DBB2DBB213706F4B1A683B1C42331B887C
S1130830D2183B1C37331B785BB2002B01DA03233D
S113084000E002231370674B1A683B1C42331B8879
S1130850D218644B19683B1C42331B88CB181B7895
S1130860D9B23B1C373318782023034001D00C2322
S113087000E008230B43DBB2DBB21370594B1A6858
S11308803B1C42331B88D218564B19683B1C42331D
S11308901B88CB181B78D9B23B1C37331878082334
S11308A0034001D0302300E020230B43DBB2DBB252
S11308B013704C4B19683B1C42331B883A1C423260
S11308C0581E10801A1C8918464A1268D3181B78BF
S11308D0DAB23B1C373318780223034001D0C0231B
S11308E000E080231343DBB2DBB20B7060E23C4BCD
S11308F01A683B1C46331B88D2183B1C37331978C3
S113090040230B4001D0802300E000231370344BBC
S11309101A683B1C46331B88D218314B19683B1CA0
S113092046331B88CB181B78D9B23B1C3733187855
S11309301023034001D0202300E000230B43DBB24B
S1130940DBB21370264B1A683B1C46331B88D21843
S1130950234B19683B1C46331B88CB181B78D9B230
S11309603B1C373318780423034001D0082300E0EC
S113097000230B43DBB2DBB21370194B1A683B1C28
S113098046331B88D218164B19683B1C46331B8808
S1130990CB181B78D9B23B1C37331878012303409A
S11309A001D0022300E000230B43DBB2DBB213705F
S11309B00C4B1A683B1C42331B88D2183B1C373340
S11309C01B785BB2002B0FDA02230EE0A800002094
S11309D0E5210000BC00002040620000A4000020CB
S11309E0B0000020AC00002000231370C34B1A6831
S11309F03B1C42331B88D218C04B19683B1C423342
S1130A001B88CB181B78D9B23B1C373318782023AA
S1130A10034001D0082300E000230B43DBB2DBB228
S1130A201370B64B1A683B1C42331B88D218B34B65
S1130A3019683B1C42331B88CB181B78D9B23B1C6A
S1130A40373318780823034001D0202300E0002323
S1130A500B43DBB2DBB21370A84B19683B1C423367
S1130A601B883A1C4232581E10801A1C8918A34A4B
S1130A701268D3181B78DAB23B1C37331878022378
S1130A80034001D0802300E000231343DBB2DBB238
S1130A900B708DE19A4B1A683B1C46331B88D218A5
S1130AA03B1C3733197840230B4001D0C02300E0AE
S1130AB000231370924B1A683B1C46331B88D218D0
S1130AC08F4B19683B1C46331B88CB181B78D9B253
S1130AD03B1C373318781023034001D0302300E047
S1130AE000230B43DBB2DBB21370854B1A683B1C4B
S1130AF046331B88D218824B19683B1C46331B882B
S1130B00CB181B78D9B23B1C373318780423034025
S1130B1001D00C2300E000230B43DBB2DBB21370E3
S1130B20774B1A683B1C46331B88D218744B1968E0
S1130B303B1C46331B88CB181B78D9B23B1C37337C
S1130B4018780123034001D0032300E000230B4362
S1130B50DBB2DBB21370694B1A683B1C42331B884F
S1130B60D2183B1C37331B785BB2002B01DA03230A
S1130B7000E000231370614B1A683B1C42331B884E
S1130B80D2185E4B19683B1C42331B88CB181B7868
S1130B90D9B23B1C373318782023034001D00C23EF
S1130BA000E000230B43DBB2DBB21370534B1A6833
S1130BB03B1C42331B88D218504B19683B1C4233F0
S1130BC01B88CB181B78D9B23B1C37331878082301
S1130BD0034001D0302300E000230B43DBB2DBB23F
S1130BE01370464B19683B1C42331B883A1C423233
S1130BF0581E10801A1C8918404A1268D3181B7892
S1130C00DAB23B1C373318780223034001D0C023E7
S1130C1000E000231343DBB2DBB20B70C8E0384BB7
S1130C201A683B1C46331B88D2183B1C373319788F
S1130C3040230B4001D0802300E0C0231370304BCD
S1130C401A683B1C46331B88D2182D4B19683B1C71
S1130C5046331B88CB181B78D9B23B1C3733187822
S1130C601023034001D0202300E030230B43DBB2E8
S1130C70DBB21370224B1A683B1C46331B88D21814
S1130C801F4B19683B1C46331B88CB181B78D9B201
S1130C903B1C373318780423034001D0082300E0B9
S1130CA00C230B43DBB2DBB21370154B1A683B1CED
S1130CB046331B88D218124B19683B1C46331B88D9
S1130CC0CB181B78D9B23B1C373318780123034067
S1130CD001D0022300E003230B43DBB2DBB2137029
S1130CE0064B1A683B1C42331B88D2183B1C373313
S1130CF01B785BB2002B05DA022304E0AC00002071
S1130D00B0000020032313707F4B1A683B1C42334E
S1130D101B88D2187C4B19683B1C42331B88CB18A8
S1130D201B78D9B23B1C373318782023034001D0F9
S1130D30082300E00C230B43DBB2DBB21370724BCD
S1130D401A683B1C42331B88D2186F4B19683B1C32
S1130D5042331B88CB181B78D9B23B1C3733187825
S1130D600823034001D0202300E030230B43DBB2EF
S1130D70DBB21370644B19683B1C42331B883A1C6A
S1130D804232581E10801A1C89185F4A1268D31800
S1130D901B78DAB23B1C373318780223034001D0A6
S1130DA0802300E0C0231343DBB2DBB20B70C046E8
S1130DB03B1C46331A883B1C463301321A80534B82
S1130DC01B781A1C5249131C9B009B189B00CB18C0
S1130DD008335B883A1C463212889A4200D2AAE44D
S1130DE04A4B1B781A1C4A49131C9B009B189B00F6
S1130DF0CB1808335B88BA68D318BB60434B1B78A5
S1130E001A1C4349131C9B009B189B00CB180833E6
S1130E109A883B1C44331B88D31A9BB2013B9AB279
S1130E203B1C40331A803B4B1A683B1C4033002068
S1130E301B5E9B109BB21BB2D2183B1C403300209C
S1130E40195E354B0B4004D5013B042149420B4349
S1130E5001339BB21BB23149CB5C13702B4B1B7813
S1130E601A1C2B49131C9B009B189B00CB1808339E
S1130E709B792B4A0A20111C1A1C2A4B98470220E2
S1130E800721294B9847234B1A683B1C4033002108
S1130E905B5E9B109BB21BB2D31800221A703B1CE2
S1130EA044331A883B1C443301321A80174B1B7895
S1130EB01A1C1749131C9B009B189B00CB18083362
S1130EC09B883A1C443212889A4201D2FFF702FCF2
S1130ED0164B9847031C9AB2154B1A80154B1A8867
S1130EE0134B1B889A4201D9FFF7EAFBC046114B0A
S1130EF01B881C1C0D4B9847031C9C42F7D80E4BB7
S1130F009847BD4613B090BDAC000020BC00002043
S1130F1040620000B4000020030000804063000031
S1130F2034000020F9240000892500001922000063
S1130F30A800002030000020F521000090B593B0F7
S1130F4000AFF860B960FB1D1A70FB68FB63BB68F7
S1130F50BB63AF4B1B781A1CAE49131C9B009B1838
S1130F609B00CB1810331A88AB4B1A80AB4B9847B5
S1130F70A74B1B781A1CA749131C9B009B189B00AA
S1130F80CB1808339B88DB089BB2DAB23B1C37339F
S1130F90013A1A70FB6BFB60BB6BBB60A04B1B6818
S1130FA0FA1D12789F498A5C1A703B1C4433002254
S1130FB01A80F3E09C4B1B68002B17D09A4B1C68DB
S1130FC0934B1B781A1C9349131C9B009B189B0082
S1130FD0CB1808335B88DBB2B9683A1C1032081CA2
S1130FE0111C1A1CA0473B1C1033FB60884B1B7858
S1130FF01A1C8849131C9B009B189B00CB180833B0
S11310005B88DBB2DB18DAB23B1C4333013A1A705B
S11310103B1C463300221A803CE0FB685A1CFA60F1
S11310203A1C36321B781370804B1A683B1C4333CE
S11310301B78391C4331581E0870D318FA1D1078D8
S11310403A1C363212781209D2B2111C0F22114006
S1131050774A000141188A5C1A70744B1A683B1C69
S113106043331B78391C4331581E0870D318FA1DBA
S113107010783A1C363211780F2211406C4A000164
S113108041188A5C1A703B1C46331A883B1C463351
S113109001321A805E4B1B781A1C5E49131C9B009C
S11310A09B189B00CB1808335B883A1C4632128885
S11310B09A42B2D33B1C44331B88DB089AB23B1CD4
S11310C035331A703B1C44331B88D9B23B1C343370
S11310D007220A401A703B1C44331A880123134028
S11310E09BB2002B10D1534B1A683B1C3733197831
S11310F03B1C35331B78CB1AD3183A1C3432127884
S11311004D498A5C1A700BE04C4B1A683B1C353312
S11311101B78D3183A1C3432127847498A5C1A7007
S11311203B4B1B781A1C3B49131C9B009B189B00D0
S1131130CB1808335B88BA68D318BB60344B1B7870
S11311401A1C3449131C9B009B189B00CB180833B2
S11311509B793B4A0A20111C1A1C3A4B98470220DF
S11311600721394B9847354B1A683B1C35331B789C
S1131170D31800221A702F4B1A683B1C3733197886
S11311803B1C35331B78CB1AD31800221A703B1C36
S113119044331A883B1C443301321A801C4B1B789D
S11311A01A1C1C49131C9B009B189B00CB1808336A
S11311B09B883A1C443212889A4200D2FAE6234BA6
S11311C09847031C99B2124B1B781A1C1148131C24
S11311D09B009B189B00C31810331B88CB189AB232
S11311E00D4B1A801A4B1A880B4B1B889A4200D954
S11311F0D0E6C046164B1B881C1C144B9847031C96
S11312009C42F7D8134B9847BD4613B090BDC046D7
S1131210BC00002040620000A8000020E52100007E
S1131220B80000203C630000A4000020B4000020AB
S1131230F4620000AC00002034630000B000002021
S113124034000020F9240000892500001922000040
S113125030000020F521000080B582B000AF786036
S11312603960274B00221A60264B1B78032B03D0CE
S1131270244B1B78042B20D17A6801235B42101C79
S1131280191C0022204B98477A6801235B42101CEA
S1131290191C01221C4B98473A6801235B42101C1D
S11312A0191C0222184B98473A6801235B42101C10
S11312B0191C0322144B98471FE07A6801235B42F0
S11312C0101C191C0022114B98477A6801235B42B9
S11312D0101C191C01220D4B98473A6801235B42EC
S11312E0101C191C0222094B98473A6801235B42DF
S11312F0101C191C0322054B9847BD4602B080BD43
S1131300A4000020BC0000203D0F0000990600004E
S113131080B582B000AFBB1D00221A8012E0344BAE
S11313201A68BB1D1B88D31800221A70314B1A6827
S1131330BB1D1B88D31800221A70BB1D1A88BB1D45
S113134001321A802C4B1B781A1C2C49131C9B004D
S11313509B189B00CB1808335B88BA1D12889A42ED
S1131360DDD3BB1D00221A8030E0254B1A68BB1D5B
S11313701B889B089BB2D318BA1D118803220A400C
S113138020498A5C1A701C4B1B781A1C1B49131CBD
S11313909B009B189B00CB1808339B791A4A0A20A0
S11313A0111C1A1C194B984702200721184B984707
S11313B0134B1A68BB1D1B889B089BB2D3180022D1
S11313C01A70BB1D1A88BB1D01321A800A4B1B7888
S11313D01A1C0A49131C9B009B189B00CB1808334A
S11313E09B88BA1D12889A42BFD3BD4602B080BD05
S11313F0AC000020B0000020BC00002040620000CF
S1131400B40000204063000034000020F9240000F0
S11314108925000080B582B000AFBB1D00221A8070
S11314200BE04D4B1A68BB1D1B88D31800221A70A1
S1131430BB1D1A88BB1D01321A80BB1D1988474B7E
S11314401B781A1C4648131C9B009B189B00C3184E
S113145008335B885B009942E3DB404B1B781A1C22
S11314603F49131C9B009B189B00CB1808339B8897
S1131470DB089BB2DAB27B1D013A1A70BB1D002255
S11314801A8056E0BB1D1B88DB089AB23B1D1A70FC
S1131490BB1D1B88D9B2FB1C07220A401A70BB1D56
S11314A01A88012313409BB2002B0DD12D4B1A68CF
S11314B07B1D19783B1D1B78CB1AD318FA1C1278A4
S11314C029498A5C1A7009E0284B1A683B1D1B786D
S11314D0D318FA1C127824498A5C1A701F4B1B78A3
S11314E01A1C1F49131C9B009B189B00CB18083324
S11314F09B791F4A0A20111C1A1C1E4B9847022074
S113150007211D4B9847194B1A683B1D1B78D318AC
S113151000221A70134B1A687B1D19783B1D1B7827
S1131520CB1AD31800221A70BB1D1A88BB1D0132B6
S11315301A800A4B1B781A1C0949131C9B009B1820
S11315409B00CB1808339B88BA1D12889A4299D302
S1131550BD4602B080BDC046B4000020BC000020DF
S113156040620000AC00002034630000B0000020A2
S113157034000020F92400008925000080B582B0E1
S113158000AFBB1D00221A8012E02F4B1A68BB1D4E
S11315901B88D31855221A702C4B1A68BB1D1B8844
S11315A0D31855221A70BB1D1A88BB1D01321A802C
S11315B0274B1B781A1C2749131C9B009B189B0064
S11315C0CB1808335B88BA1D12889A42DDD3BB1D41
S11315D000221A800BE0204B1A68BB1D1B88D3180D
S11315E000221A70BB1D1A88BB1D01321A80184BC9
S11315F01B781A1C1749131C9B009B189B00CB18C3
S113160008339B88DB089BB2BA1D12889A42E2D346
S1131610124B1B68AA221A700D4B1B781A1C0D4919
S1131620131C9B009B189B00CB1808339B790C4A16
S11316300A20111C1A1C0B4B9847022007210A4B45
S11316409847BD4602B080BDB0000020AC00002029
S1131650BC00002040620000B4000020B80000205C
S113166034000020F92400008925000080B582B0F0
S113167000AFFB1D00221A7009E0FB1D1B78194AFC
S11316800021D154FB1D1A78FB1D01321A70FB1D79
S11316901B7899B2144B1B781A1C1448131C9B001A
S11316A09B189B00C31808339B88DB089BB29942A4
S11316B0E3D30D4B1B781A1C0C49131C9B009B187D
S11316C09B00CB1808339B79064A0A20111C1A1C6C
S11316D0074B984702200721064B9847BD4602B0A6
S11316E080BDC04634000020BC00002040620000E1
S11316F0F92400008925000080B500AF3B4B1B781E
S1131700032B03D0394B1B78042B02D1384B984759
S113171001E0384B9847354B1B78022B10D1364BE0
S113172098471920354B984721200021344B98477E
S1131730C820324B984721200121314B984704E0BF
S1131740304B9847C8202D4B98470F2000212E4B33
S11317509847031C1A1C4023134001D1F32342E091
S11317600B200021294B984703200121274B984740
S113177005200321254B984705200121234B984739
S113178078201E4B984704208021204B9847052041
S113179000211E4B9847072001211C4B98473220FB
S11317A0164B98471A4B984723200021144B98470F
S11317B021200021124B98470A20104B98470520FE
S11317C000210F4B9847272000210D4B98472620D6
S11317D001210B4B98479620084B9847262000215F
S11317E0074B98470023181CBD4680BDBC00002051
S11317F015140000111300006D160000C548000008
S1131800190200007D1500005924000089250000FC
S11318107123000080B582B000AF021CFB1D1A705A
S1131820064BFA1D1278111C1F220A400121081CC4
S11318309040021C1A60BD4602B080BD00E100E089
S113184080B582B000AF021CFB1D1A70074AFB1D55
S11318501B78191C1F230B400121081C9840031CF2
S1131860191C8023D150BD4602B080BD00E100E0C8
S113187080B584B000AF78607B681B68FB60FB6850
S11318805B7EDBB2DBB25BB2002B01DA012300E04A
S11318900023181CBD4604B080BDC04680B586B088
S11318A000AF78607B681B683B613B691B7EDBB2E1
S11318B0FB6000237B61FA680123134003D07B693A
S11318C0012213437B61FA680423134003D07B692C
S11318D0022213437B61FA680223134003D07B691D
S11318E0042213437B617B69181CBD4606B080BD8E
S11318F080B584B000AF786039607B681B68BB60DA
S11319000023FB603A680123134003D0FB680122E3
S11319101343FB603A680223134003D0FB6804229C
S11319201343FB603A680423134003D0FB6802228C
S11319301343FB60FB68DAB2BB681A76BD4604B099
S113194080BDC04680B584B000AF78607B681B68FA
S1131950FB60C0467B68181C0E4B9847031C002B89
S1131960F8D117200C4B9847FB681B78DBB2022296
S11319701343DAB2FB681A70C0467B68181C054B27
S11319809847031C002BF8D10023181CBD4604B053
S113199080BDC046711800001518000080B584B0E1
S11319A000AF78607B681B68FB6017200F4B98477B
S11319B0C0467B68181C0E4B9847031C002BF8D1BB
S11319C0FB681B78DBB202229343DAB2FB681A701D
S11319D0C0467B68181C064B9847031C002BF8D1A3
S11319E00023181CBD4604B080BDC0464118000049
S11319F07118000080B584B000AF78607B681B6804
S1131A00FB60C0467B68181C0B4B9847031C002BDB
S1131A10F8D1FB681B7BDBB202221343DAB2FB680A
S1131A201A73C0467B68181C034B9847031C002B91
S1131A30F8D1BD4604B080BD7118000080B584B0F3
S1131A4000AF786039607B68181C184B9847021CFB
S1131A500123134001D1052324E07B681B68FB604C
S1131A60C0467B68181C124B9847031C002BF8D106
S1131A70FB685B8B9AB23B681A807B68181C012157
S1131A800C4B98477B68181C084B9847021C04238E
S1131A90134006D07B68181C0421064B98471E236C
S1131AA000E00023181CBD4604B080BD9D18000052
S1131AB071180000F118000080B582B000AF7860A2
S1131AC07B685B09181CBD4602B080BD80B582B03E
S1131AD000AF78607B68DB01024A9B18181CBD4686
S1131AE002B080BD0044004180B582B000AF786090
S1131AF07B68181C054B9847031C181C044B98471B
S1131B00031C181CBD4602B080BDC046B91A0000B3
S1131B10CD1A000080B582B000AF78607A681F23C8
S1131B2013400122111C99400B1C181CBD4602B025
S1131B3080BDC04680B500AFBD4680BD80B584B0D1
S1131B4000AF786039607B68181C144B9847031CFD
S1131B50BB600023FB601AE0FB680122111C994062
S1131B600B1C3A6813400FD0B9684023FA688A18EE
S1131B70D3181B78DBB201229343DAB2B86840234E
S1131B80F9684118CB181A70FB680133FB60FB68D5
S1131B901F2BE1D9BD4604B080BDC046CD1A00005C
S1131BA090B583B000AF78607B68181C074B9847EA
S1131BB0041C7B68181C064B9847031C201C191C2A
S1131BC0044B9847BD4603B090BDC046B91A000007
S1131BD0151B00003D1B000080B584B000AF786089
S1131BE00A1CFB1C1A707B68181C184B9847031CB2
S1131BF0FB60FB1C1B78012B07D17B68181C144B62
S1131C009847021CFB689A600AE0FB1C1B78002BB7
S1131C1006D17B68181C0E4B9847021CFB685A605F
S1131C207B68181C0B4B9847031CF9684022C918A1
S1131C308A181278D2B202210A43D2B2F86840213B
S1131C40C3185B181A70BD4604B080BDE91A0000C1
S1131C50151B0000B91A000090B583B000AF78607E
S1131C600A1CFB1C1A70FB1C1B78002B0BD07B6816
S1131C70181C0C4B9847041C7B68181C0A4B98478B
S1131C80031CA3610AE07B68181C064B9847041CDC
S1131C907B68181C044B9847031C6361BD4603B062
S1131CA090BDC046E91A0000151B000090B583B032
S1131CB000AF78607B68181C054B9847041C7B6850
S1131CC0181C044B9847031CE361BD4603B090BD48
S1131CD0E91A0000151B000080B500AF014B9847BE
S1131CE0BD4680BD351B000080B582B000AF786072
S1131CF07B68181C024B9847BD4602B080BDC046A5
S1131D00A11B000080B582B000AF78600A1CFB1CE8
S1131D101A707A68FB1C1B78101C191C024B98471C
S1131D20BD4602B080BDC046D91B000080B582B05C
S1131D3000AF78600A1CFB1C1A707A68FB1C1B78C5
S1131D40101C191C024B9847BD4602B080BDC0460A
S1131D50591C000080B582B000AF78607B68181C05
S1131D60024B9847BD4602B080BDC046AD1C000082
S1131D7080B584B000AF78607B681B68FB60FB684B
S1131D80DB695A1E9341DBB2181CBD4604B080BD0A
S1131D9080B582B000AF78607B6801221A707B68DE
S1131DA000225A607B6800229A607B68C0229203FA
S1131DB0DA607B6800221A747B6800225A747B689C
S1131DC001229A747B680122DA747B6800221A75F6
S1131DD07A6824230021D1547B681833181C00210D
S1131DE00C220A4B98477B68094A9A617B68002257
S1131DF09A627B680022DA627B6800221A637B683D
S1131E0000225A63BD4602B080BDC0462F62000066
S1131E10A086010080B584B000AF78607B681B6841
S1131E20FB60C0467B68181C064B9847031C002BBC
S1131E30F8D1FB681B6802221A43FB681A60BD468E
S1131E4004B080BD711D000080B584B000AF78601F
S1131E507B681B68FB60C0467B68181C074B98476F
S1131E60031C002BF8D1FB681B680222191C914348
S1131E700A1CFB681A60BD4604B080BD711D0000D9
S1131E8080B584B000AF78607B681B68FB60FB683A
S1131E901B7EDBB21A1C022313405A1E9341DBB291
S1131EA0181CBD4604B080BD80B584B000AF786016
S1131EB07B681B68FB60FB681B7EDBB21A1C01237A
S1131EC013405A1E9341DBB2181CBD4604B080BDBA
S1131ED080B584B000AF78600A1CBB1C1A807B6894
S1131EE01B68FB607B68181C0A4B9847031C012283
S1131EF05340DBB2002B01D0052306E0BB1C1B883A
S1131F00DB05DA0DFB689A620023181CBD4604B099
S1131F1080BDC046A91E000080B584B000AF7860C3
S1131F207B681B68FB60FB68DB7BDBB21A1C8023CD
S1131F3013405A1E9341DBB2181CBD4604B080BD49
S1131F4080B582B000AF78607B6800221A707B682D
S1131F5000229A707B6800229A807B6800229A7122
S1131F607B6800221A817B6800225A707B680022F9
S1131F709A727B680022DA727B6800221A737B688B
S1131F8000229A737B6800225A737B6800221A74B9
S1131F907B6800225A617B6800229A617B68002278
S1131FA01A777B6800221A627B6800225A627B6877
S1131FB000221A857B6800225A857B6800229A8554
S1131FC0BD4602B080BDC04680B584B000AF786025
S1131FD07B681B68FB60C0467B68181C074B9847EE
S1131FE0031C002BF8D1FB681B889BB2022213430D
S1131FF09AB2FB681A80BD4604B080BD191F000068
S113200080B584B000AF78607B681B68FB60C04615
S11320107B68181C074B9847031C002BF8D1FB68FE
S11320201B889BB2022293439AB2FB681A80BD4676
S113203004B080BD191F000080B584B000AF786083
S11320407B681B68FB60C0467B68181C054B98477F
S1132050031C002BF8D1FB6880225A71BD4604B0E2
S113206080BDC046191F000080B582B000AF786003
S1132070044A7B68D3181B78DBB25BB2181CBD46DC
S113208002B080BD0000002080B582B000AF78604F
S11320900A1CFB1C1A707B681B68181C224B98478F
S11320A0031C181C214B9847031C181C204B9847F1
S11320B0FB1C1B78022B0BD17B685B7E1022134325
S11320C0DAB27B685A767B681B6810225A7328E060
S11320D0FB1C1B78032B0BD17B685B7E20221343F4
S11320E0DAB27B685A767B681B6820225A7318E040
S11320F07B685B7EDAB2FB1C1B780121081C9840CC
S1132100031CDBB21343DBB2DAB27B685A767B681A
S11321101B68FA1C12780121081C9040021CD2B2E0
S11321205A73BD4602B080BD3137000069200000FB
S11321301518000080B58EB000AF1F4B181C1F4B44
S113214098473B1D181C1E4B98473B1D01221A70D3
S11321503B1DC02292009A803B1D08229A703B1DB1
S1132160802292011A813B1D00229A733B1D00229A
S11321709A621149134A3B1D081C111C1A1C124B6C
S113218098470D4A114B101C191C0222104B9847FA
S1132190094B181C02210F4B9847074B181C0021B0
S11321A00D4B9847044B181C0C4B98470C4B0022C2
S11321B01A60BD460EB080BDF8000020BD3C000092
S11321C0411F0000003000427D37000069220000FA
S11321D0253D000089200000053C0000C91F0000C7
S11321E0C000002080B500AF014B9847BD4680BDBC
S11321F03521000080B500AF044B181C044B9847F0
S1132200024B181C034B9847BD4680BDF8000020C4
S1132210392000000120000080B500AF094B181CD4
S1132220094B9847021C094B101CFA22910098474D
S1132230031C1A1C064B1A60054B1B68181CBD4670
S113224080BDC046F8000020693C000071580000C1
S1132250C000002080B500AF2220024B9847BD4645
S113226080BDC046551D000080B582B000AF7860C7
S11322700E4B1B685A1C0D4B1A6001200C4B9847DF
S1132280021C0C4B101CFA2291009847031C0A4AAA
S1132290101C191C094B9847094B1B78DBB2002B07
S11322A001D0084B9847BD4602B080BDC000002055
S11322B0D552000071580000F8000020053C0000D1
S11322C0340100205522000080B500AFBD4680BD1A
S11322D080B58EB000AF184B1B78002B29D13B1C66
S11322E0181C164B98473B1C80225202DA603B1C98
S11322F000229A603B1C124A9A613B1C114A9A6262
S11323003B1C01225242DA623B1C0F4A1A633B1CFB
S11323100E4A5A630E490F4A3B1C081C111C1A1C16
S11323200D4B98470A4B181C0C4B9847024B012243
S11323301A70BD460EB080BDD0000020911D000073
S113234000127A00030004000300060003000700E3
S1132350C400002000080042F5450000151E0000DE
S113236080B500AF014B9847BD4680BDD122000027
S113237080B500AF144B181C144B98470720144B1E
S113238098470620124B98470420114B9847072082
S11323900121104B9847062001210E4B9847042039
S11323A001210C4B9847072000210B4B9847042030
S11323B00021094B984706200021074B9847074BFB
S11323C000221A70BD4680BDC4000020491E0000D2
S11323D0E91C0000051D00002D1D0000D000002098
S11323E080B582B000AF021CFB1D1A70FB1D1B7868
S11323F09BB2094A101C191C084B9847C046064B4F
S1132400181C074B9847031C01225340DBB2002BD6
S1132410F5D1BD4602B080BDC4000020D11E00002D
S1132420811E000080B582B000AF021CBB1D1A8063
S1132430BB1D1A880649BB1D081C111C1A1C054B20
S11324409847BB1D1B88DBB2181CBD4602B080BD7B
S1132450C4000020FD46000090B585B000AF0A1C02
S1132460FB1D011C1970BB1D1A701D4B1B6859689C
S11324701C4A0A405A60052000211B4B98477020D3
S11324801A4B9847FB1D1B78181C184B98470520BE
S11324900121154B9847164B984705200021124BF4
S11324A098477320114B98470D4B1B685A6880213D
S11324B089020A435A60BB1D1B789BB23C1C0F3433
S11324C0181C0C4B9847031C237005200121064B54
S11324D098473B1C0F331B78181CBD4605B090BDB4
S11324E0C4000020FFFFFDFF2D1D0000E1230000BC
S11324F0C92200002524000080B584B000AFB96073
S11325007A603B1C0F33021C1A701A4B1B68596803
S1132510194A0A405A6005200021184B9847702038
S1132520174B98473B1C0F331B78181C144B9847C8
S113253005200121114B9847124B98470520002193
S11325400E4B984772200E4B984706E0BB685A1C06
S1132550BA601B78181C0A4B98477B685A1E7A602D
S1132560002BF3D105200121044B9847BD4604B04C
S113257080BDC046C4000020FFFFFDFF2D1D0000EC
S1132580E1230000C922000080B582B000AF0A1C1C
S1132590FB1D011C1970BB1D1A70154B1B68596873
S11325A0144A0A405A6005200021134B98477020B2
S11325B0124B9847FB1D1B78181C104B984705209D
S11325C001210D4B98470E4B9847052000210A4BDB
S11325D098477220094B9847BB1D1B78181C074B62
S11325E0984705200121044B9847BD4602B080BDA1
S11325F0C4000020FFFFFDFF2D1D0000E1230000AB
S1132600C922000080B582B000AF094B181C094BE9
S11326109847074ABB1D101C191C074B9847031CFD
S1132620052BF6D0BB1D1B88181CBD4602B080BD0F
S113263014010020F51900003D1A000080B584B093
S113264000AF00237B6000233B60364B181C364BE5
S113265098473B1C0F3300221A7008E0334B98470D
S11326603B1C0F331A783B1C0F3301321A703B1C8E
S11326700F331B78092BF1D90023BB603B1C0F33AC
S113268000221A700CE0294B9847031CBA68D3182F
S1132690BB603B1C0F331A783B1C0F3301321A709A
S11326A03B1C0F331B780F2BEDD9BB68002B00DAD2
S11326B00F331B11BB601B4B181C1D4B98471D4B44
S11326C0B8689847021C1C4B101C1C499847031CF3
S11326D01A1C194B101C1A499847031C7B60194B90
S11326E0786819499847031C1A1C134B101C174986
S11326F09847031C1A1C164B101C16499847031CB8
S11327001A1C104B1448111C9847031C3B60134BB4
S113271038689847031C9BB21BB2181CBD4604B012
S113272080BDC046140100204519000005260000A4
S11327309D190000DD6000005D5B00003333D33978
S113274000002040B15D0000D578993F00007A4434
S113275011590000EC512C410000CA429D60000058
S113276080B58CB000AF3B1C181C0E4B98473B1C2B
S113277000229A603B1C802292005A803B1C022259
S11327805A703B1C08221A733B1C00221A7106491A
S1132790064A3B1C081C111C1A1C054B9847BD46D5
S11327A00CB080BDFD29000014010020004000424F
S11327B04130000080B500AF174B9847242000211A
S11327C0164B984705200121144B984727200121D7
S11327D0124B984723200121104B984726200121B2
S11327E00E4B9847212001210C4B984725200121AD
S11327F00A4B984722200121084B984720200021AA
S1132800064B984725200121054B9847212000219C
S1132810034B9847BD4680BDD91C0000051D000030
S11328202D1D000080B500AF114B984723200021D7
S1132830104B9847104B9847052000210D4B9847A3
S1132840222000210B4B984727200021094B984751
S113285026200021074B984721200021054B98474B
S1132860064B9847064B00221A70BD4680BDC046F1
S1132870B52700002D1D0000612700006123000022
S11328803401002080B500AF014B9847BD4680BDA0
S11328902528000080B586B000AFB9607A603B1C83
S11328A00F33021C1A700F4B9847031C1A1C3B1C55
S11328B017331A703B1C0F331A783B1C17331B78E1
S11328C05BB2101C191C084B9847084B9847BA6810
S11328D07B68101C191C064B9847064B9847BD464D
S11328E006B080BD3D2600009104000019050000DB
S11328F059120000F916000080B582B000AF78606C
S11329007B6800221A70BD4602B080BD80B582B0DB
S113291000AF021C3960FB1D1A70FB1D1B78012BD4
S11329200AD0022B0FD0002B14D10E4B0D4A916903
S11329303A680A439A610FE00A4B0A4AD1693A6835
S11329400A43DA6108E0074B064A116A3A680A4307
S11329501A6201E0172300E00023181CBD4602B0F0
S113296080BDC0460004004080B582B000AF7860EE
S11329707B6880221A707B6800225A707B6801226F
S11329809A707B680022DA70BD4602B080BDC046F2
S113299080B582B000AF021CFB1D1A70FB1D1B78B2
S11329A0002B02D0012B07D00DE0084B074A126C14
S11329B002210A431A6406E0044B044A126C0421FF
S11329C00A431A64C046BD4602B080BD00080040F8
S11329D080B584B000AF78607B681B68FB60FB68DF
S11329E05B7EDBB2DBB25BB2002B01DA012300E0D9
S11329F00023181CBD4604B080BDC04680B582B01B
S1132A0000AF78607B6800221A707B6800225A70DD
S1132A107B6800225A807B6800221A717B6800223E
S1132A201A767B6800221A627B680022DA617B686E
S1132A3000229A607B6800221A737B68C0225201CC
S1132A40DA817B6800221A747B6800225A747B68DE
S1132A5000229A747B680022DA747B6800221A755B
S1132A607A682A230021D1547B6800225A757B6836
S1132A7000229A757A6824230021D1547B680022AD
S1132A80DA847B6800221A857B680022DA757A680A
S1132A902B230021D1547A682C230021D154BD4624
S1132AA002B080BD80B598B000AF78603A1C0C329B
S1132AB0154B111C1A1C5023081C111C1A1C134BF7
S1132AC09847134BFB657B68132B1AD83B1C0C33BC
S1132AD07A689200D358FB653B1C0833181C0D4BD5
S1132AE098473B1C083300229A703B1C0833012290
S1132AF01A70FB6DDAB23B1C0833101C191C064B10
S1132B009847BD4618B080BD586300001D620000A0
S1132B10FFFF000069290000A5560000B0B588B089
S1132B2000AF786039603B1C1F3300221A701023F9
S1132B30BB613B1C173300221A707B681B683B6126
S1132B403B1C0C33181CC14B98473B681A783B1C40
S1132B500C331A703B1C0C331E20191CBC4B9847B9
S1132B601E20BC4B98473A682C23D35C002B40D0E2
S1132B703B1C163339682B228A5C1A703B68197B1C
S1132B803B1C15333A1C163212788A181A703A68AC
S1132B902C23D15C3B1C0F333A1C153212788A1853
S1132BA01A7018E03B1C16331A780F231A403B683E
S1132BB01B7BD318181CA84B98473B1C15331A7859
S1132BC03B1C153301321A703B1C16331A783B1C1C
S1132BD0163301321A703A1C15323B1C0F3312782B
S1132BE01B789A42DED33B68DB89181C9A4B9847C2
S1132BF009E03B681B7B181C974B98473B68DB89B3
S1132C00181C954B98473B685B7D9B00DAB23B6987
S1132C101A703B689B7DDB01DAB23B685B78DBB200
S1132C201343DBB2DAB23B695A703B681B79342B2D
S1132C3046D89A00894BD3181B689F463B1C1F3308
S1132C403A68527C1A703B1C17333A68127C1A702B
S1132C501023BB6136E03B1C1F3301221A703B1C5E
S1132C60173302221A701023BB612BE03B1C1F3365
S1132C7002221A703B1C173304221A701023BB6102
S1132C8020E03B1C1F3301221A703B1C1733062221
S1132C901A701023BB6115E03B1C1F3300221A700D
S1132CA03B1C173308221A701023BB610AE030233F
S1132CB0BB6107E02023BB6104E00023BB6101E0AA
S1132CC01723A7E13B1C1F331B781B01DAB27023C7
S1132CD01340DAB23B1C17331B781343DAB23B6957
S1132CE09A703B68DB7D3F2B01D9172392E13B6847
S1132CF0DA7D3B69DA70C0467B68181C584B9847EC
S1132D00031C002BF8D13B685A88BB699BB2134360
S1132D109AB239682423CB5CDB009BB213439AB28A
S1132D203B681B7D9B009BB213439AB23B689B7C20
S1132D30DB189BB213439AB23B68DB7C13439AB211
S1132D403B699A803B681B7E002B00D1BDE0BB69C8
S1132D50102B00D192E002D8002B4FD0B5E0202BED
S1132D6025D0302B00D0B0E03B68DB7C002B13D0A7
S1132D703B68DB697F2B0DDC3B68DB691A1C803206
S1132D8008DB3B681B6A7F2B04DC3B681B6A1A1C4C
S1132D90803201DA17233DE13B68DB69FF2B03DC5A
S1132DA03B681B6AFF2B01DD172333E18DE03B6891
S1132DB0DB7C002B15D03B68DA692A4B9A420EDC87
S1132DC03B68DA69284B9A4209DB3B681A6A254B4F
S1132DD09A4204DC3B681A6A234B9A4201DA1723AD
S1132DE018E13B68DA69214B9A4204DC3B681A6AB1
S1132DF01E4B9A4201DD17230CE166E03B68DB7C45
S1132E00002B15D03B68DA69194B9A420EDC3B68FB
S1132E10DA69184B9A4209DB3B681A6A144B9A42E6
S1132E2004DC3B681A6A134B9A4201DA1723F1E077
S1132E303B68DA69104B9A4204DC3B681A6A0E4B11
S1132E409A4201DD1723E5E03FE0C046F92800007F
S1132E50C153000001540000A52A0000A86300002B
S1132E60D1290000FF01000000FEFFFFFF03000066
S1132E70FF07000000F8FFFFFF0F00003B68DB7C4A
S1132E80002B15D03B68DA69644B9A420EDC3B6830
S1132E90DA69634B9A4209DB3B681A6A5F4B9A42D0
S1132EA004DC3B681A6A5E4B9A4201DA1723B1E0EC
S1132EB03B68DA695B4B9A4204DC3B681A6A594BFB
S1132EC09A4201DD1723A5E0C046C0467B68181C62
S1132ED0554B9847031C002BF8D13B681A7E3B697D
S1132EE01A72C0467B68181C4F4B9847031C002B72
S1132EF0F8D13B68DB699AB23B699A83C0467B6828
S1132F00181C494B9847031C002BF8D13B681B6ADB
S1132F109AB23B691A843B1C143339682C228A5CAC
S1132F201A703B1C14331B78002B06D03B1C143343
S1132F301A783B1C1433013A1A703B1C14331B7867
S1132F400F2B04D83A682B23D35C0F2B01D91723FA
S1132F5060E0C0467B68181C334B9847031C002B69
S1132F60F8D13B689A6839682B23CB5C1B051A435C
S1132F703B1C14331B781B041A433B68DB891A433C
S1132F803B681B7B1A433B691A613A682A23D25C6B
S1132F903B691A753B690F229A753A682423D35CFE
S1132FA0002B1DD03B68DA8C204B9A4201D91723A1
S1132FB030E03B68DA8C3B699A843B681B8D1AB21B
S1132FC01B4B9A4205DC3B681B8D1AB2194B9A4283
S1132FD001DA17231EE03B681B8D9AB23B69DA8441
S1132FE0154B1B68DB089BB21B029AB2E023DB0083
S1132FF0134099B2114B1A685B685801D40E04430C
S1133000DD0EA2B2FF2313409BB20B439AB23B697D
S11330101A850023181CBD4608B0B0BDFF7F000010
S11330200080FFFFFFFF0000D1290000FF0F000018
S1133030FF07000000F8FFFF24608000206080008C
S113304080B586B000AFF860B9607A60FB68BA6892
S11330501A6080235B020220191C324B9847BB681C
S11330601B78DBB21A1C0123134001D0052355E061
S1133070BB681B78DBB21A1C0223134001D01C234B
S11330804CE07B685A78FB681A71FB681B79002B4B
S113309002D10120244B98473B1C173300221A709D
S11330A00EE03B1C17331A78FB68023292000021B1
S11330B0D1503B1C17331A783B1C173301321A705A
S11330C03B1C17331B78022BEBD9FB6800229A7642
S11330D0FB680022DA76FB6800221A83FB68002270
S11330E01A77124BFA681A607A682A23D35C002B89
S11330F00AD17B681B7D01225340DBB2002B03D035
S1133100FB6801225A7702E0FB6800225A77FA68CA
S11331107B68101C191C064B9847031C181CBD46E1
S113312006B080BD0D29000091290000380100205F
S11331301D2B000080B584B000AF78607B681B68ED
S1133140FB60FB685B7EDBB2DBB25BB2002B01DAB7
S1133150012300E00023181CBD4604B080BDC04616
S113316080B584B000AF78607B681B68FB60C046A4
S11331707B68181C0B4B9847031C002BF8D1FB6889
S11331801B7BDBB202221343DAB2FB681A73C0461C
S11331907B68181C034B9847031C002BF8D1BD46D1
S11331A004B080BD3531000080B584B000AF7860D4
S11331B00A1CFB1C1A707B681B68FB60FB68FA1C0A
S11331C012789A75BD4604B080BDC04680B584B0FF
S11331D000AF021CFB1D1A70FB1D1A78444B9200B1
S11331E0D358FB60FB681B681B7EDBB2BB60BA680C
S11331F00123134046D0FB68DB7E1A1C01231340D5
S113320040D0FB689B7E1A1C012313403AD0FB6814
S11332101B6801221A76C046FB68181C354B984778
S1133220031C002BF8D1FB685B69991CFA68516197
S1133230FA681268528B92B21A80FB681B8B9BB29D
S1133240013B9BB2FA68191C1183002B08D0FB6860
S11332505B7F002B16D0FB68181C274B984711E0A6
S1133260FB681B7FDBB2052B0CD1FB6800221A77AD
S1133270FB68181C0121214B9847FB689B68FA687E
S1133280101C9847BA680423134014D0FB681B68C9
S113329004221A76FB68DB7E1A1C022313400AD030
S11332A0FB689B7E1A1C0223134004D0FB68DB6876
S11332B0FA68101C9847BA680223134014D0FB68BC
S11332C01B6802221A76FB68DB7E1A1C0423134057
S11332D00AD0FB689B7E1A1C0423134004D0FB68AD
S11332E01B69FA68101C9847BD4604B080BDC046EF
S11332F0380100203531000061310000A93100009F
S113330080B500AF0020024B9847BD4680BDC04643
S1133310CD31000080B582B000AF78607B680022B8
S11333201A70BD4602B080BD80B586B000AFF860AB
S1133330B9607A603B1C163300221A80BB683B617B
S1133340BB685A08FB689A4201D2402326E0BB6856
S11333505B083B610AE03A69FB68D31A3B613B1C9A
S113336016331A883B1C163301321A803A69FB68FB
S11333709A42F0D23B1C16333A1C16321288013A98
S11333801A803B1C16331B88FF2B01D9402305E010
S11333907B683A1C163212881A800023181CBD461A
S11333A006B080BD80B584B000AF0A1CFB1D011CB3
S11333B01970BB1D1A701A4B1B7801225340DBB2E3
S11333C0002B03D1BB1D1B78002B1BD03B1C0C33E3
S11333D0181C144B98473B1C0C33FA1D12781A70B6
S11333E03B1C0C331320191C0F4B984713200F4B15
S11333F098470B4BFA1D12785A70094B01221A7028
S1133400002308E0064B5B78FA1D12789A4201D13A
S1133410002300E01D23181CBD4604B080BDC04637
S1133420D400002015330000C153000001540000F3
S113343080B582B000AF78600A1CFB1C1A707B68F0
S11334404D4A93423FD04C4A934206D84B4A93424A
S11334500FD04B4A934221D089E04A4A934200D18B
S11334605BE0494A934200D16CE0484A93423FD022
S11334707DE0FB1C1B78012B0AD002DC002B05D05D
S113348075E0022B06D0032B06D070E0404B6FE0B2
S1133490404B6DE0404B6BE0404B69E0FB1C1B78FC
S11334A0012B0AD002DC002B05D060E0022B06D0F1
S11334B0032B06D05BE003235AE0394B58E0394B29
S11334C056E0394B54E0FB1C1B78012B0AD002DC7C
S11334D0002B05D04BE0022B06D0032B06D046E090
S11334E0324B45E0324B43E0324B41E0324B3FE05C
S11334F0FB1C1B78012B0AD002DC002B05D036E024
S1133500022B06D0032B06D031E02C4B30E02C4BA1
S11335102EE02C4B2CE02C4B2AE0FB1C1B78012BBF
S11335200AD002DC002B05D021E0022B06D0032BAD
S113353006D01CE0254B1BE0254B19E0254B17E07A
S1133540254B15E0FB1C1B78012B0AD002DC002B59
S113355005D00CE0022B06D0032B06D007E01F4B4E
S113356006E01F4B04E01F4B02E01F4B00E000236A
S1133570181CBD4602B080BD001000420008004285
S1133580000C004200180042001C004200140042DB
S11335900300040003000500030006000300070005
S11335A00300010003001E0003001F0003000800C5
S11335B00300090003000A0003000B0003001000CD
S11335C003001100030012000300130003000C00A9
S11335D003000D0003000E0003000F00030016009B
S11335E003001700030018000300190090B58BB006
S11335F000AF78603B1C0C330E4A13CA13C313CAC2
S113360013C300237B620DE07A683B1C0C33796A98
S11336108900CB589A4202D17B6ADBB206E07B6A0E
S113362001337B627B6A052BEED90023181CBD464F
S11336300BB090BD7C64000080B582B000AF7860B0
S11336407B6800221A70BD4602B080BD80B582B08E
S113365000AF021C3960FB1D1A70FB1D1B78012B87
S11336600AD0022B0FD0002B14D10E4B0D4A9169B6
S11336703A680A439A610FE00A4B0A4AD1693A68E8
S11336800A43DA6108E0074B064A116A3A680A43BA
S11336901A6201E0172300E00023181CBD4602B0A3
S11336A080BDC0460004004080B582B000AF7860A1
S11336B07B6880221A707B6800225A707B68012222
S11336C09A707B680022DA70BD4602B080BDC046A5
S11336D080B584B000AF78607B681B68FB60FB68D2
S11336E0DB7BDBB21A1C802313405A1E9341DBB2EE
S11336F0181CBD4604B080BD80B584B000AF7860AE
S11337007B681B68FB60C0467B68181C074B9847A6
S1133710031C002BF8D1FB681B889BB20222934345
S11337209AB2FB681A80BD4604B080BDD136000051
S113373090B589B000AF78603B1C08330E4A13CAB9
S113374013C303CA03C30023FB610DE03B1C08330E
S1133750FA699200D2587B689A4202D1FB69DBB2C3
S113376006E0FB690133FB61FB69042BEED90023FE
S1133770181CBD4609B090BD9464000090B58DB08E
S113378000AFF860B9607A603B1C2E3300221A80C7
S11337903B1C2D3300221A703B1C2C3300221A7060
S11337A03C1C2934BB68181CC54B9847031C237068
S11337B03A1C2432C34B111C1A1C0523081C111C6F
S11337C01A1CC14B98473A1C1832C04B111C1A1CC6
S11337D00A23081C111C1A1CBB4B98473B1C2B3397
S11337E000221A700EE03B1C2B331A78FB6802325D
S11337F092000021D1503B1C2B331A783B1C2B33F5
S113380001321A703B1C2B331B78032BEBD9FB685A
S113381000221A76FB6800225A763B1C29331A7858
S1133820AB4B9200F968D150FB68BA681A607B68A8
S11338309B78082B08D13B1C29331B78DA1C012305
S1133840134001D01723D6E17B689A78FB681A717C
S1133850BB681B889BB21A1C0123134001D00523AB
S1133860C9E1BB68DB7BDBB21A1C1023134001D017
S11338701C23C0E1BB681B889BB21A1C02231340A3
S113388001D01C23B7E17B681B7C002B17D03B1CA9
S11338901433181C8F4B98477B689B69DAB23B1C26
S11338A014331A703B1C143301225A707B685B6911
S11338B0DAB23B1C1433101C191C874B98477B68E5
S11338C01B7F002B17D03B1C1433181C814B9847CB
S11338D07B685B6ADAB23B1C14331A703B1C1433EA
S11338E001225A707B681B6ADAB23B1C1433101C29
S11338F0191C794B98473B1C29331A783B1C183305
S11339005200D35A0220191C744B98477B689B7849
S1133910082B0BD13B1C29331B785A1C3B1C183336
S11339205200D35A0220191C6C4B98473B1C10338D
S1133930181C6B4B98477B681A783B1C10331A7021
S11339403B1C29331B783A1C2432D25C3B1C1033B9
S1133950101C191C634B98473B1C29331B783A1CD9
S11339602432D35C181C604B98477B689A787B6838
S11339709B791343DBB21A1C7B681B89134399B2EE
S11339807B689A883B1C2E330A431A807B685B78D9
S1133990002B09D03B1C2E333A1C2E321288802176
S11339A009010A431A80FFE7C046FB68181C4F4B05
S11339B09847031C002BF8D1BB683A1C2E3212889E
S11339C01A807B685B7B002B03D03B1C2D330422C5
S11339D01A707B689B7B002B08D03B1C2D333A1C50
S11339E02D32127801210A431A70FFE7C046FB68A2
S11339F0181C3E4B9847031C002BF8D1BB68FF22D0
S1133A001A713B1C2D331B78002B0CD0C046FB686D
S1133A10181C364B9847031C002BF8D1BB683A1C82
S1133A202D3212785A713B1C2C337A68927A1A70B0
S1133A303B1C2A3300221A701DE03B1C2A331B78DE
S1133A407A68D318DB7A002B0ED03B1C2A331B7800
S1133A501022111C99400B1CD9B23B1C2C333A1C6C
S1133A602C3212780A431A703B1C2A331A783B1CF6
S1133A702A3301321A703B1C2A331B78012BDCD900
S1133A80C046FB68181C194B9847031C002BF8D13F
S1133A90BB683A1C2C3212789A71C046FB68181C19
S1133AA0124B9847031C002BF8D1FB681B79042B9D
S1133AB01ED0082B00D177E0002B4FD09AE0C046EF
S1133AC031370000A86400001D620000B0640000EB
S1133AD03C010020A9360000A55600004D36000028
S1133AE039360000C153000001540000D1360000F3
S1133AF0C046FB68181C424B9847031C002BF8D1A6
S1133B007A682823D25CBB681A74C046FB68181C08
S1133B103B4B9847031C002BF8D17A682923D25CCD
S1133B20BB681A75C046FB68181C354B9847031CC4
S1133B30002BF8D17A682A23D25CBB681A76C04677
S1133B40FB68181C2E4B9847031C002BF8D17A688D
S1133B502B23D25CBB685A7600234CE0C046FB683A
S1133B60181C274B9847031C002BF8D17B681A8D2F
S1133B70BB681A82C046FB68181C214B9847031C7B
S1133B80002BF8D17B685A8DBB681A83C046FB684A
S1133B90181C1B4B9847031C002BF8D17B689A8D8B
S1133BA0BB685A83002326E0C046FB68181C144BEC
S1133BB09847031C002BF8D17B689A6ABB681A618A
S1133BC0C046FB68181C0E4B9847031C002BF8D109
S1133BD07B68DA6ABB689A61C046FB68181C084BAC
S1133BE09847031C002BF8D17B681A6BBB68DA6119
S1133BF0002300E01723181CBD460DB090BDC0463D
S1133C00D136000080B584B000AF786039607B683D
S1133C101B68FB60C0467B68181C124B9847031C4A
S1133C20002BF8D17B681B79042B04D0082B0ED011
S1133C30002B06D010E03B68DAB2FB681A7400234C
S1133C400BE03B689AB2FB681A82002305E0FB682C
S1133C503A681A61002300E01723181CBD4604B01B
S1133C6080BDC046D136000080B584B000AF786016
S1133C707B681B68FB60C0467B68181C0E4B98472A
S1133C80031C002BF8D17B681B79042B04D0082B70
S1133C900AD0002B04D00AE0FB681B7CDBB207E0EF
S1133CA0FB681B8A9BB203E0FB681B6900E00023EE
S1133CB0181CBD4604B080BDD136000080B584B068
S1133CC000AF78607B681B68FB60FB68DB7BDBB262
S1133CD01A1C1023134001D015231BE0FB681B881A
S1133CE09BB21A1C022313400BD07B68181C0B4B8D
S1133CF09847C0467B68181C094B9847031C002B47
S1133D00F8D1FB681B889BB2012213439AB2FB686B
S1133D101A800023181CBD4604B080BDF93600008B
S1133D20D136000080B584B000AFF860B960FB1DE7
S1133D301A70FB1D1A78FB6802329200B968D150E0
S1133D40FB1D1B78022B07D1FB681B7E102213433B
S1133D50DAB2FB681A761AE0FB1D1B78032B07D135
S1133D60FB681B7E20221343DAB2FB681A760EE04E
S1133D70FB681B7EDAB2FB1D1B780121081C9840EE
S1133D80031CDBB21343DBB2DAB2FB681A760023FE
S1133D90181CBD4604B080BD80B500AF0020024BA6
S1133DA09847BD4680BDC046FD3D000080B500AFCC
S1133DB00120024B9847BD4680BDC046FD3D000032
S1133DC080B500AF0220024B9847BD4680BDC04677
S1133DD0FD3D000080B500AF0320024B9847BD466F
S1133DE080BDC046FD3D000080B500AF0420024BFD
S1133DF09847BD4680BDC046FD3D000080B584B0F7
S1133E0000AF021CFB1D1A70FB1D1A78284B920090
S1133E10D358FB60FB681B689B7BDBB2FA68127E9D
S1133E201340DAB2FB68597E3B1C0B330A401A700C
S1133E303B1C0B331A780123134008D0FB689B68A2
S1133E40FA68101C9847FB681B6801229A733B1C94
S1133E500B331A780223134008D0FB68DB68FA6836
S1133E60101C9847FB681B6802229A733B1C0B3397
S1133E701A781023134008D0FB681B69FA68101CD9
S1133E809847FB681B6810229A733B1C0B331A7803
S1133E902023134008D0FB685B69FA68101C98471C
S1133EA0FB681B6820229A73BD4604B080BDC046DF
S1133EB03C01002080B582B000AF78607B6880222E
S1133EC01A707B6800225A707B6801229A707B68A2
S1133ED00022DA70BD4602B080BDC04680B584B011
S1133EE000AF021CFB1D1A703B1C0F33FA1D127825
S1133EF0D2091A703B1C0E33FA1D127852091A703B
S1133F000D4BBB603B1C0F331B78002B0ED13B1CAD
S1133F100F331B789B001022D219D318083B1A6860
S1133F203B1C0E331B78DB01D31800E00023181C64
S1133F30BD4604B080BDC0460044004180B586B093
S1133F4000AF021CFB1D1A70FB1D1B78181C194BBB
S1133F509847031C7B61FB1D1A781F2313403B61A8
S1133F60796940233A698A18D3181B78DBB21A1C82
S1133F700123134001D1802317E03B695A08796972
S1133F8030238A18D3181B78DBB2FB603A6901230B
S1133F90134005D0FA68F02313401B09DBB204E098
S1133FA0FB68DAB20F231340DBB2181CBD4606B01F
S1133FB080BDC046DD3E000080B582B000AF7860B1
S1133FC07B6800221A70BD4602B080BD80B582B005
S1133FD000AF021C3960FB1D1A70FB1D1B78012BFE
S1133FE00AD0022B0FD0002B14D10E4B0D4A91692D
S1133FF03A680A439A610FE00A4B0A4AD1693A685F
S11340000A43DA6108E0074B064A116A3A680A4330
S11340101A6201E0172300E00023181CBD4602B019
S113402080BDC0460004004080B500AF054B9B78BE
S1134030DBB21A1C022313405A1E9341DBB2181C34
S1134040BD4680BD0020004180B584B000AF7860DB
S11340507B681B68FB60FB681B7EDBB21A1C0123B8
S113406013405A1E9341DBB2181CBD4604B080BDF8
S113407080B584B000AF78607B681B68FB60FB6828
S11340801B7EDBB21A1C042313405A1E9341DBB27D
S1134090181CBD4604B080BD80B584B000AF786004
S11340A00A1CBB1C1A807B681B68FB607B68181C9D
S11340B00A4B9847031C01225340DBB2002B01D06A
S11340C0052306E0BB1C1B88DB05DA0DFB689A623E
S11340D00023181CBD4604B080BDC0464940000002
S11340E080B584B000AF786039607B681B68BB60C2
S11340F07B68181C1D4B9847031C01225340DBB2FC
S1134100002B01D010232CE03B1C0F3300221A702B
S1134110BB685B8B9BB21A1C042313400BD03B1C63
S11341200F331E221A70BB685B8B9BB204221343AD
S11341309AB2BB685A837B689B79012B08D1BB6810
S11341409B6A9BB2DB05DB0D9AB23B681A8005E0E3
S1134150BB689B6ADBB21A1C3B681A803B1C0F339A
S11341601B78181CBD4604B080BDC04671400000D9
S113417090B593B000AF786039607B681B687B634F
S11341807B681B683B633B1C1C33181C864B98479D
S11341903B1C1C3300225A703B681B78002B03D154
S11341A03B1C1C3300229A703B689A6A3B1C0C33FC
S11341B01A603B68DA6A3B1C0C335A603B681A6B22
S11341C03B1C0C339A603B685A6B3B1C0C33DA6023
S11341D03B1C473300221A702CE03B1C47331A78EF
S11341E03B1C0C339200D3583B643B6C002B09D12D
S11341F03A6B3B1C47331B78101C191C6B4B9847BC
S1134200031C3B643B6C01330DD03B6CDAB23B1CAA
S11342101C331A703B6C1B0CDAB23B1C1C33101C95
S1134220191C634B98473B1C47331A783B1C473394
S113423001321A703B1C47331B78032BCDD93B68E2
S11342401A787B685A713B681A7C7B689A713B6860
S11342509A7C7B68DA713B681A7D7B681A723B1C16
S11342600A3300221A800023FB630023BB633B68EC
S11342701B78012B2BD17B681B68181C4D4B98476E
S1134280031CFB62FB6A1433BB62BB6ADBB2181CFF
S1134290494B9847031C7B623B6899693C1C233457
S11342A07A6A3B1C0A33081C111C1A1C434B98479E
S11342B0031C23703B1C23331B78002B01D01723D2
S11342C06DE03B1C0A331B88DAB27B6B1A733B68C4
S11342D01B78002B1AD13B689B69FB633B689B8B63
S11342E0BB637B6B5A6A3B689B7F191C3B68DB7F13
S11342F01B040B431A437B6B5A623A682023D35C3A
S1134300002B03D0BB6B40221343BB633B685B6849
S1134310FA6B1343FB633B689B68FA6B1343FB63C1
S11343203B68DB68FA6B1343FB633B681B7CBA6B2B
S11343301343BB633B685B7C002B04D1204B984741
S1134340031C002B03D0FB6B80221343FB633B68ED
S11343509B7C002B04D0BB6B802292021343BB6373
S11343603B68DB7C002B04D0BB6B802292001343A0
S1134370BB633B681B7D002B04D0BB6B8022920186
S11343801343BB637B6B1A68FB6B1A437B6B1A602A
S11343907B6B5A68BB6B1A437B6B5A600023181CF7
S11343A0BD4613B090BDC046B53E00003134000098
S11343B0A5560000ED350000DD540000293300004F
S11343C02940000090B591B000AF786039607B68F7
S11343D01B68FB627B681B68BB623B689A6A3B1C78
S11343E00C331A603B68DA6A3B1C0C335A603B6836
S11343F01A6B3B1C0C339A603B685A6B3B1C0C33A6
S1134400DA603B1C3F3300221A7030E03B1C3F3320
S11344101A783B1C0C339200D358BB63BB6B002B44
S113442009D1BA6A3B1C3F331B78101C191C6D4B15
S11344309847031CBB63BB6B013300D110E0BB6B1B
S11344401B041C0CBB6B1B0CDBB2181C664B984783
S1134450031C9C4204D07B6800221A601C23BDE02C
S11344603B1C3F331A783B1C3F3301321A703B1C10
S11344703F331B78032BC9D913205C4B9847031C8B
S11344807B6200237B6300233B6300233B623B6826
S11344901B78012B23D13B6899693C1C1F347A6A31
S11344A03B1C0A33081C111C1A1C514B9847031C53
S11344B023703B1C1F331B78002B01D017238DE086
S11344C0FB6A1B7BDAB23B1C0A331B88DBB29A42C1
S11344D001D01C2382E07B6B0C2213437B633B687B
S11344E01B78002B27D13B689B697A6B13437B6352
S11344F03B689B8B3A6B13433B633B689B7F1A1C63
S11345003B68DB7F1B0413433A6A13433B62FB6A39
S11345101A683B6A9A4201D01C235FE03A68202360
S1134520D35C002B03D03B6B402213433B637B6B78
S1134530082213437B633B685B687A6B13437B639A
S11345403B689B687A6B13437B633B68DB687A6BDD
S113455013437B633B681B7C3A6B13433B633B68AD
S11345605B7C002B03D07B6B802213437B633B6813
S11345709B7C002B04D03B6B8022920213433B6351
S11345803B68DB7C002B04D03B6B802292001343FE
S11345903B633B681B7D002B04D03B6B8022920164
S11345A013433B637B6B022213437B63FB6A1A68EE
S11345B07B6B9A420ED1FB6A5A683B6B9A4209D1D3
S11345C03B681A787B685A713B681A7C7B689A71DD
S11345D0002303E07B6800221A601C23181CBD46DC
S11345E011B090BD313400003D3F0000DD540000A7
S11345F02933000080B58AB000AFF860B9607A60F2
S1134600FB68BA681A60FB681B687B627B6A1A687D
S11346100223134007D0FA687B68101C191C2F4B27
S11346209847031C56E07B6A1A680123134001D0A3
S113463005234FE0FB681B68181C294B9847031C93
S11346403B623B6A0233FB613B6A1433BB61FB6927
S11346500122111C99400B1C0220191C214B984764
S11346603B1C1433181C204B98477A682423D25CD3
S11346703B1C14331A70BB69DAB23B1C1433101C94
S1134680191C1A4B9847BB69DBB2181C184B984786
S11346907A682423D35C181C0021164B98477B6846
S11346A01B78012B05D17B6A1B680C221A437B6A99
S11346B01A607B681B78002B05D17B6A1B68082273
S11346C01A437B6A1A60FA687B68101C191C0A4B2F
S11346D09847031C181CBD460AB080BDC5430000A2
S11346E0ED350000CD3F0000B93F0000C15300008C
S11346F001540000A53300007141000090B587B05B
S113470000AFF8607A603B1C0A330A1C1A80FB680D
S1134710DB7901225340DBB2002B01D01C237AE069
S11347203B1C153300221A70FB685B79002B21D1E6
S11347303B1C163300221A8016E0FB68181C384B09
S11347409847031C002B00D014E03B1C16331A8836
S1134750344B9A4201D112235DE03B1C16331A8874
S11347603B1C163301321A803B1C16331A882D4B1E
S11347709A42E2D9C046FB68181C294B9847031C8F
S113478001225340DBB2002BF5D1FA683B1C0A33FB
S11347901B88101C191C244B9847FB685B79002B61
S11347A021D13B1C163300221A8016E0FB68181C2A
S11347B01E4B9847031C002B00D014E03B1C1633FF
S11347C01A88184B9A4201D1122324E03B1C163359
S11347D01A883B1C163301321A803B1C16331A8884
S11347E0104B9A42E2D9C046FB68181C0F4B9847FD
S11347F0031C01225340DBB2002BF5D13C1C1534C1
S1134800FA687B68101C191C094B9847031C237019
S11348103B1C15331B78181CBD4607B090BDC04621
S1134820494000001027000099400000714000003A
S1134830E140000080B582B000AF78607B68002B57
S11348400CD0084B7A685A60064B00229A60C04626
S1134850044B1A6880235B021340F9D0BD4602B0B2
S113486080BDC04610E000E080B500AF0020104BD2
S11348709847021C0F4B1A600E4B1A680E4B101C03
S1134880FA2291009847031C1A1C0A4B1A60094B20
S11348901A68094B101CFA2291009847031C1A1C31
S11348A0064B1A60064B05221A60BD4680BDC04601
S11348B0D552000008000020715800000C000020B0
S11348C010E000E080B582B000AF786004E0064BF1
S11348D01B68181C054B98477B685A1E7A60002B8E
S11348E0F5D1BD4602B080BD080000203548000067
S11348F080B582B000AF0F4B1B68002B12D1EFF3D1
S113490010837B607B68002B09D172B6BFF35F8F85
S1134910094B00221A70094B01221A7002E0074B5E
S113492000221A70034B1B685A1C024B1A60BD46C6
S113493002B080BDD800002010000020DC00002060
S113494080B500AF0A4B1B685A1E094B1A60084B0E
S11349501B68002B0AD1074B1B78DBB2002B05D058
S1134960054B01221A70BFF35F8F62B6BD4680BD4E
S1134970D8000020DC0000201000002080B582B0A8
S113498000AF78607B6801225A607B6800225A700D
S11349907B6806221A707B6800221A727B680022E8
S11349A05A72BD4602B080BD80B582B000AF786057
S11349B07B6800221A70BD4602B080BD80B582B00B
S11349C000AF78607B6803221A707B6800225A70FB
S11349D07B6801229A70BD4602B080BD80B582B06A
S11349E000AF78607B6800221A707B6800225A80CE
S11349F07B6800229A807B6800229A717B6800227F
S1134A00DA717B6801225A707B6807221A727B680C
S1134A103F225A817B6801221A737B680122DA8162
S1134A207B6806221A82BD4602B080BD80B582B082
S1134A3000AF021CFB1D1A70034BFA1D12781A7288
S1134A40BD4602B080BDC0460004004080B582B0BF
S1134A5000AF0A1CFB1D011C1970BB1D1A70FB1D45
S1134A601B78012B08D0022B0BD0002B0ED10B4B43
S1134A70BA1D12785A720BE0084BBA1D12789A725A
S1134A8006E0064BBA1D1278DA7201E0172300E043
S1134A900023181CBD4602B080BDC046000400407F
S1134AA080B582B000AF021CFB1D1A70084BFA1DC2
S1134AB011780F220A40D1B20F220A4052005968DD
S1134AC01E2081430A435A60BD4602B080BDC046E1
S1134AD00040004180B500AFC046034BDA681023A4
S1134AE01340FAD0BD4680BD0008004080B500AF39
S1134AF00C4B02229A840C4B98470A4B0B4A92683F
S1134B00DA62084B094A52689A62064B00229A8478
S1134B10054B9847034A054B1B689BB29384BD46DB
S1134B2080BDC04600080040D54A0000E0000020D7
S1134B3080B582B000AF021CFB1D1A70FB1D1B78F0
S1134B40082B43D89A00244BD3181B689F46234B49
S1134B501B693CE0224B1B6A1B0A1A1C03231340EB
S1134B60DBB2204A111CD9400B1C30E080231B020D
S1134B702DE080231B022AE0184B5B6927E0174BCA
S1134B801A680223134001D1002320E0164B9847F2
S1134B90124B1A680423134009D00020134B984782
S1134BA0021C0E4B9B681B041B0C53430FE0104B61
S1134BB00DE00B4A5023D35CDBB21A1C04231340D0
S1134BC001D1002303E0054BDB6800E00023181C3F
S1134BD0BD4602B080BDC0461C920000E00000202B
S1134BE00008004000127A00D54A0000DD5400009D
S1134BF0006CDC0280B584B000AF7860164B1B6A91
S1134C00FB607B681B781A1C03231340D9B23B1C3E
S1134C100D3303220A401978032081430A431A7092
S1134C207B689A783B1C0C33D20118787F210140B1
S1134C300A431A707B6859783B1C0C3301220A40E2
S1134C4092011978402081430A431A70024BFA6892
S1134C501A62BD4604B080BD0008004080B582B031
S1134C6000AF78607B681B7A9B021B041A0C7B687C
S1134C705B899B059B0D1A43294B5A607B689A7983
S1134C807B68DB791343DBB21A1C7B685B881A43AD
S1134C907B689B881A437B685B78DB011A43204B53
S1134CA01A607B681B78042B16D17B681B7B9B06E0
S1134CB01A1C7B68DB891B04191C1A4B0B401A4312
S1134CC07B681B8A1A43164B9A60154B1A687B68DB
S1134CD01B781A43124B1A607B681B78202B1CD15B
S1134CE07B681B7B9B061A1C7B68DB891B04191CD5
S1134CF00C4B0B401A437B681B8A1A43084B9A607F
S1134D00074B1A687B681B7804210B43DBB21343FF
S1134D108022D2001A43024B1A60BD4602B080BD05
S1134D20E00000200000FF0380B582B000AF021C49
S1134D30FB1D1A70FB1D1B78082B3BD89A00214BD6
S1134D40D3181B689F46204B1F4A126A02210A434C
S1134D501A62002331E01C4B1B4A926902210A4368
S1134D609A6129E0184B184A128A92B202210A4326
S1134D7092B21A8220E0144B134A928A92B2022110
S1134D800A4392B29A8217E0104B1B6802221A431C
S1134D900E4B1A600E4B98470EE00B4A0A49442307
S1134DA0CB5CDBB202210B43D9B24423D15403E0E0
S1134DB0002302E0172300E00023181CBD4602B0C4
S1134DC080BDC0464092000000080040E000002082
S1134DD0ED4A000080B584B000AF021CFB1D1A70C0
S1134DE00023FB60FB1D1B78082B21D89A00184B6D
S1134DF0D3181B689F460823FB601BE00423FB6059
S1134E0018E00123FB6015E00223FB6012E0D023CD
S1134E10FB600FE00F4A5023D35CDBB21A1C032360
S1134E201340033B5A425341DBB20CE001230AE036
S1134E30002308E0074BDB68FA681A40FB68D31AC2
S1134E405A425341DBB2181CBD4604B080BDC04673
S1134E50649200000008004080B582B000AF3B1CA3
S1134E6002221A7000237B6009E07B68DAB23B1CE3
S1134E70101C191C054B98477B6801337B607B68C9
S1134E80242BF2D9BD4602B080BDC046C1530000F8
S1134E9080B5A6B000AF674BC222D2009A60022050
S1134EA0654B9847654B98473B1C8033181C644BF3
S1134EB098473B1C803304221A703B1C8033002229
S1134EC05A70604B1B689B0E9422D2191360942273
S1134ED0D21913683F2B03D11F239422D2191360D4
S1134EE09422D2191368DAB23B1C80331A723B1C29
S1134EF0803300225A803B1C80330022DA713B1C31
S1134F00803300229A713B1C803300229A803B1C20
S1134F10803306221A823B1C803307221A733B1CFF
S1134F2080333F22DA813B1C8033181C464B984760
S1134F303B1C7C33181C454B98473B1C7C3300229C
S1134F401A703B1C7C3301229A703B1C7C33002278
S1134F505A703B1C7C33181C3D4B984706203D4B34
S1134F6098473D4B98473B1C6433181C3B4B984770
S1134F703B1C643306221A703B1C643301225A60C2
S1134F803B1C643300221A723B1C643300225A72A5
S1134F903B1C64330120191C314B98470120314BD1
S1134FA098473B1C0C33181C2F4B98473B1C0C3365
S1134FB001221A703B1C0C330020191C2B4B984700
S1134FC000202B4B98470720224B9847C0460720C8
S1134FD0284B9847031C01225340DBB2002BF6D127
S1134FE00020254B984700200021244B984701209E
S1134FF00021224B984702200021204B98473B1C5C
S1135000181C164B98473B1C07221A703B1C0122A4
S11350105A603B1C00221A723B1C00225A723B1C31
S11350200020191C0E4B984700200E4B9847BD4694
S113503026B080BD00080040A14A0000594E00007F
S1135040DD490000246080005D4C0000BD49000083
S1135050F54B0000294D0000215100007D4900005E
S11350605151000079520000A9490000C1530000C9
S113507001540000D54D00002D4A00004D4A0000A7
S113508080B582B000AF021C3960FB1D1A70FB1D95
S11350901B78012B0AD0022B0FD0002B14D10E4BFE
S11350A00D4A91693A680A439A610FE00A4B0A4A29
S11350B0D1693A680A43DA6108E0074B064A116A83
S11350C03A680A431A6201E0172300E00023181C1F
S11350D0BD4602B080BDC0460004004080B500AFAC
S11350E0014B9847BD4680BDF148000080B500AF34
S11350F0014B9847BD4680BD4149000080B500AFD3
S1135100064B5B78DBB2DBB25BB2002B01DA012326
S113511000E00023181CBD4680BDC046000C0040C2
S113512080B500AF00200821074B9847074B0122A8
S11351301A70C046054B1B78DBB21A1C01231340BE
S1135140F8D1BD4680BDC04681500000000C00402F
S113515080B586B000AF021C3960FB1D1A70FB1DC0
S11351601B787B61FB1D1B783B613B681B781B0232
S11351707A6913437B613B685B78002B04D07B69BD
S11351808022D20213437B613B685B7A002B04D0FC
S11351907B698022120313437B613B685B68012BAC
S11351A02CD93B685A683B685B68013B13401AD1B1
S11351B00023FB600223BB6005E0FB680133FB6056
S11351C0BB685B00BB603B685A68BB689A42F4D812
S11351D0FB681B023A6913433B617B6980225203DB
S11351E013437B610AE03B685B681B023A69134323
S11351F03B617B698022920213437B613B681B7A8B
S1135200002B05D07B698022920313437B61FFE767
S1135210C046144B9847031C002BFAD1124B9847F5
S1135220124BFA1D12781A70C0460E4B9847031C95
S1135230002BFAD10E4B3A699A60C046094B984745
S1135240031C002BFAD10A4B094A516880225202EE
S113525011407A690A435A60064B9847BD4606B026
S113526080BDC046FD500000DD500000080C004029
S1135270000C0040ED50000080B582B000AF021C6D
S1135280FB1D1A70C0460E4B9847031C002BFAD125
S11352900C4B98470C4BFA1D12781A70C046084BF9
S11352A09847031C002BFAD1084B084A5268802106
S11352B049020A435A60064B9847BD4602B080BD76
S11352C0FD500000DD500000040C0040000C0040C4
S11352D0ED50000080B586B000AF021CFB1D1A70B3
S11352E0C0462F4B9847031C002BFAD12D4B9847EF
S11352F02D4BFA1D12781A70C046294B9847031C8F
S1135300002BFAD1294B5B681B0A1A1C1F2313407C
S1135310DBB2181C264B9847031C7B61224BFA1DF9
S113532012781A70214B5B681B0D1A1C0123134061
S1135330DAB23B1C13331A701E4BFA1D12781A7022
S1135340C046174B9847031C002BFAD1174B9B6898
S11353501B0A002293439BB2FB60174B98473B1CEC
S113536013331B78002B09D1FB68012B06D9134B8F
S11353707869F9689847031C7B610BE03B1C133385
S11353801B78002B06D0FB6801337A69111CD940C5
S11353900B1C7B617B69181CBD4606B080BDC046F2
S11353A0FD500000DD500000040C0040000C0040E3
S11353B0314B0000080C0040ED5000007158000013
S11353C080B584B000AF021C3960FB1D1A70FB1D50
S11353D01B78FB603B681B781B02FA681343FB6075
S11353E0FB1D1B78181C044B9847044BFA6892B2B7
S11353F05A80BD4604B080BD45540000000C0040F6
S113540080B582B000AF021CFB1D1A70094B98478F
S1135410094BFA1D12781A70084B084A528892B246
S11354208021C9010A4392B25A80054B9847BD4670
S113543002B080BDDD500000020C0040000C0040B2
S1135440ED50000080B584B000AF021CFB1D1A7043
S11354501C4B98471C4BFA1D12781A701B4B5B8827
S11354609BB21B0A1A1C0F231340DBB2FB60174BC1
S11354705988174A0A405A80144B144A528891B2E8
S1135480144A0A4092B25A80C046104B5B889BB2C1
S11354901A1C8023DB011340F7D10C4BFA68D2B2FB
S11354A0111C0F220A40D1B20F220A40120258885E
S11354B0074901400A435A80074B9847BD4604B048
S11354C080BDC046DD500000020C0040000C0040CE
S11354D0FFF0FFFFFFBFFFFFED50000080B584B079
S11354E000AF021CFB1D1A700E4B98470E4BFA1DA1
S11354F012781A700D4B5B889BB21B0A1A1C0F237F
S11355001340DAB23B1C0F331A70094B98473B1C0B
S11355100F331B78181C074B9847031C181CBD46F7
S113552004B080BDDD500000020C0040000C0040BF
S1135530ED500000D552000080B584B000AF021CCD
S1135540FB1D1A703B1C0F33FA1D1278D2091A7016
S11355503B1C0E33FA1D127852091A700D4BBB60B6
S11355603B1C0F331B78002B0ED13B1C0F331B78D5
S11355709B001022D219D318083B1A683B1C0E3327
S11355801B78DB01D31800E00023181CBD4604B0CF
S113559080BDC0460044004180B588B000AFF860CB
S11355A0B9607A600023FB617B68DB780122534099
S11355B0DBB2002B34D07B681B78802B0AD0FB69CC
S11355C0802252021343FB617B681B781B06FA6935
S11355D01343FB617B685B78002B03D07B685B78AB
S11355E0022B10D1FB69802292021343FB617B687A
S11355F09B78002B04D0FB698022D2021343FB6109
S1135600FB68BA685A607B685B78012B03D07B68BF
S11356105B78022B07D1FA69214B1340FB6102E04E
S1135620FB68BA685A60BB681B041B0CBB61BB688F
S11356301B0C7B61BA69FB691343A022D2051A4390
S1135640FB689A627A69FB691343D02212061A43F3
S1135650FB689A627B68DB7801225340DBB2002B43
S11356601AD0FA698023DB0213400AD07B689B7846
S1135670012B03D1FB68BA689A6102E0FB68BA683F
S11356805A617B685B78012B03D07B685B78022BC3
S113569002D1FB68BA689A60BD4608B080BDC046B6
S11356A0FFFFFBFF80B584B000AF021C3960FB1D17
S11356B01A70FB1D1B78181C0B4B9847031CFB60CE
S11356C0FB1D1A781F2313400122111C99400B1C47
S11356D0BB60F968BA683B68081C111C1A1C034BB0
S11356E09847BD4604B080BD395500009955000067
S11356F080B582B000AF2D4B7B602D4B3B607A6848
S11357003B689A420CD007E03B681A1D3A607A68FD
S1135710111D796012681A603A68264B9A42F3D3D5
S1135720254B3B6004E03B681A1D3A6000221A6076
S11357303A68224B9A42F6D3214B7B60214B7A681C
S1135740FF218A439A60204A90235B000221D150B2
S11357501E4BDA7803218A4302210A43DA701B4B79
S1135760DA780C218A4308210A43DA70184B9A7BB1
S113577030218A4320210A439A73154B9A7B0C21CA
S11357808A4308210A439A73114B9A7B03218A4363
S113579002210A439A730F4B5A6880210A435A60C4
S11357A00D4B98470D4B9847FEE7C04628930000E1
S11357B000000020140000201400002050010020EC
S11357C00000000000ED00E00070004100500041C6
S11357D00048004100400041D16100000158000030
S11357E080B500AFFEE7C04680B500AF034B012291
S11357F01A70BFF35F8F62B6BD4680BD10000020F3
S113580080B500AF114B9847114B9847FA239B0082
S1135810181C104B9847104B9847104B9847104A48
S1135820104B0220111C1A1C0F4B98470F4B181CCD
S1135830084B98470B4A0A4B0220111C1A1C0A4BAE
S113584098470A4B181C034B9847E8E7914E000011
S113585069480000C548000085280000E957000099
S11358606C7B0000BC64000095280000B80B0000AD
S1135870002934D00123002210B488422CD30124FF
S11358802407A14204D2814202D209011B01F8E794
S1135890E400A14204D2814202D249005B00F8E74D
S11358A0884201D3401A1A434C08A04202D3001B79
S11358B05C0822438C08A04202D3001B9C082243AC
S11358C0CC08A04202D3001BDC082243002803D0EA
S11358D01B0901D00909E3E7101C10BC704700281C
S11358E001D00020C04307B4024802A1401802902E
S11358F003BDC046190000000029F0D003B5FFF72E
S1135900B9FF0EBC4243891A1847C0467047C046C7
S1135910F0B55F4656464D464446F0B4460245004F
S1135920C00F85B00F1C760A2D0E804641D0FF2D86
S113593026D08024240400212643F6007F3D894696
S11359408B46F90F7C027800640A000E00918A46A7
S11359503CD0FF2834D080231B041C430023E400E4
S11359607F380193009F4346019A7B4049469C46F9
S113597011430F2900D971E0764F89007F58BF4643
S1135980002E3ED10822022391469B46D9E75A466F
S1135990341CC24601920199022937D0032900D14F
S11359A0CFE0012900D0ABE053460B400022002693
S11359B032E0002E19D10421012289469346C0E722
S11359C0221C531E9A4102320192CBE70127019710
S11359D0002CC7D0201C00F0DDFB431F9C40762325
S11359E05B420021181A0191BCE7301C00F0D2FB85
S11359F07625431F9E406D4200232D1A99469B46EF
S1135A009FE70C23032199468B469AE7D44601234A
S1135A1067463B40FF2200267602D205700ADB0768
S1135A201043184305B03CBC90469946A246AB4689
S1135A30F0BD80260023F603FF22EDE700220026B6
S1135A40EAE78020C00306423BD0044239D1061C59
S1135A5026437602760A009BFF22DDE7281A03908C
S1135A6076016401A64239D3361B1A220123012090
S1135A70311C5B007600002901DBB44201D8361BDF
S1135A800343013A002AF3DC741EA641341C1C4370
S1135A90039A7F32002A27DD630704D00F232340B3
S1135AA0042B00D00434270103D52B4B039A1C404C
S1135AB08032FE2A0BDD012361460B40FF220026C3
S1135AC0AAE706437602760A4346FF22A4E7A40126
S1135AD001236746660AD2B23B409DE7039F1B221F
S1135AE0013F03970023C2E77E23039F5B42DB1B36
S1135AF01B2B07DD012361460B40002200268BE7A8
S1135B00D446C5E7221CDA40039B9E339C40231CE9
S1135B105C1EA34113435A0704D00F221A40042ADF
S1135B2000D004335F0105D5012361460B400122F7
S1135B30002671E79E01624601231340760A002283
S1135B406AE78026F60326437602760A5346FF2246
S1135B5062E7C04688920000FFFFFFF7F0B55F469A
S1135B6056464D464446F0B44402460083B00F1CEA
S1135B70640A360EC50F002E41D0FF2E22D080239A
S1135B801B0400201C43E4007F3E82468046391CEF
S1135B904B007F02C90F7F0A1B0E8B463BD0FF2BA5
S1135BA034D0802212041743FF007F3B00215A4661
S1135BB06A40019252460A430F2A63D87A489200F7
S1135BC082589746002C3FD10822022392469846D9
S1135BD0DDE70195404602282AD1019A01251540A6
S1135BE0FF2300246402DB05600AED071843284301
S1135BF003B03CBC90469946A246AB46F0BD002C8F
S1135C0027D10420012282469046C0E7391C4A1E4F
S1135C1091410231CBE70121002FC8D0381C00F09C
S1135C20B9FA431F9F4076235B421B1A0021BEE74B
S1135C30032800D1AEE001284FD10198424610401C
S1135C40C5B200230024CDE70C2303209A468046E6
S1135C509DE7201C00F09EFA7626431F9C40764266
S1135C600023361A9A46984691E780240025E403D7
S1135C70FF23B7E75B463C1C01938846AAE73C1C1C
S1135C808846A7E7250C24043A0C240C3F04F61894
S1135C903F0C211C231C794353436F435543FB188A
S1135CA00A0C9B18B1469F4202D980225202AD18B9
S1135CB009041A04090C521894011B0C611E8C412E
S1135CC0920EED181443AD012C43230105D5012296
S1135CD063080120144081441C434B467F33002B4E
S1135CE02DDD600704D00F222240042A00D00434A2
